{
  "_format": "hh3-artifact-1",
  "contractName": "VantageMarket",
  "sourceName": "contracts/VantageMarket.sol",
  "abi": [
    {
      "inputs": [],
      "stateMutability": "nonpayable",
      "type": "constructor"
    },
    {
      "inputs": [
        {
          "internalType": "address",
          "name": "owner",
          "type": "address"
        }
      ],
      "name": "OwnableInvalidOwner",
      "type": "error"
    },
    {
      "inputs": [
        {
          "internalType": "address",
          "name": "account",
          "type": "address"
        }
      ],
      "name": "OwnableUnauthorizedAccount",
      "type": "error"
    },
    {
      "anonymous": false,
      "inputs": [
        {
          "indexed": true,
          "internalType": "uint256",
          "name": "marketId",
          "type": "uint256"
        },
        {
          "indexed": true,
          "internalType": "address",
          "name": "bettor",
          "type": "address"
        },
        {
          "indexed": false,
          "internalType": "uint8",
          "name": "outcome",
          "type": "uint8"
        },
        {
          "indexed": false,
          "internalType": "uint256",
          "name": "amount",
          "type": "uint256"
        }
      ],
      "name": "BetPlaced",
      "type": "event"
    },
    {
      "anonymous": false,
      "inputs": [
        {
          "indexed": true,
          "internalType": "uint256",
          "name": "id",
          "type": "uint256"
        },
        {
          "indexed": false,
          "internalType": "string",
          "name": "description",
          "type": "string"
        },
        {
          "indexed": false,
          "internalType": "uint256",
          "name": "creationTimestamp",
          "type": "uint256"
        }
      ],
      "name": "MarketCreated",
      "type": "event"
    },
    {
      "anonymous": false,
      "inputs": [
        {
          "indexed": true,
          "internalType": "uint256",
          "name": "marketId",
          "type": "uint256"
        },
        {
          "indexed": false,
          "internalType": "uint8",
          "name": "winningOutcome",
          "type": "uint8"
        }
      ],
      "name": "MarketResolved",
      "type": "event"
    },
    {
      "anonymous": false,
      "inputs": [
        {
          "indexed": true,
          "internalType": "address",
          "name": "previousOwner",
          "type": "address"
        },
        {
          "indexed": true,
          "internalType": "address",
          "name": "newOwner",
          "type": "address"
        }
      ],
      "name": "OwnershipTransferred",
      "type": "event"
    },
    {
      "anonymous": false,
      "inputs": [
        {
          "indexed": true,
          "internalType": "uint256",
          "name": "marketId",
          "type": "uint256"
        },
        {
          "indexed": true,
          "internalType": "address",
          "name": "bettor",
          "type": "address"
        },
        {
          "indexed": false,
          "internalType": "uint256",
          "name": "amount",
          "type": "uint256"
        }
      ],
      "name": "PayoutClaimed",
      "type": "event"
    },
    {
      "anonymous": false,
      "inputs": [
        {
          "indexed": true,
          "internalType": "uint256",
          "name": "marketId",
          "type": "uint256"
        },
        {
          "indexed": false,
          "internalType": "uint8",
          "name": "proposedOutcome",
          "type": "uint8"
        },
        {
          "indexed": false,
          "internalType": "uint256",
          "name": "challengeWindowEndTime",
          "type": "uint256"
        }
      ],
      "name": "ResolutionProposed",
      "type": "event"
    },
    {
      "inputs": [],
      "name": "CHALLENGE_PERIOD",
      "outputs": [
        {
          "internalType": "uint256",
          "name": "",
          "type": "uint256"
        }
      ],
      "stateMutability": "view",
      "type": "function"
    },
    {
      "inputs": [],
      "name": "MIN_BET_AMOUNT",
      "outputs": [
        {
          "internalType": "uint256",
          "name": "",
          "type": "uint256"
        }
      ],
      "stateMutability": "view",
      "type": "function"
    },
    {
      "inputs": [
        {
          "internalType": "uint256",
          "name": "",
          "type": "uint256"
        },
        {
          "internalType": "address",
          "name": "",
          "type": "address"
        },
        {
          "internalType": "uint8",
          "name": "",
          "type": "uint8"
        }
      ],
      "name": "bets",
      "outputs": [
        {
          "internalType": "uint256",
          "name": "",
          "type": "uint256"
        }
      ],
      "stateMutability": "view",
      "type": "function"
    },
    {
      "inputs": [
        {
          "internalType": "uint256",
          "name": "marketId",
          "type": "uint256"
        }
      ],
      "name": "claimPayout",
      "outputs": [],
      "stateMutability": "nonpayable",
      "type": "function"
    },
    {
      "inputs": [
        {
          "internalType": "uint256",
          "name": "",
          "type": "uint256"
        },
        {
          "internalType": "address",
          "name": "",
          "type": "address"
        }
      ],
      "name": "claimed",
      "outputs": [
        {
          "internalType": "bool",
          "name": "",
          "type": "bool"
        }
      ],
      "stateMutability": "view",
      "type": "function"
    },
    {
      "inputs": [
        {
          "internalType": "string",
          "name": "description",
          "type": "string"
        }
      ],
      "name": "createMarket",
      "outputs": [
        {
          "internalType": "uint256",
          "name": "",
          "type": "uint256"
        }
      ],
      "stateMutability": "nonpayable",
      "type": "function"
    },
    {
      "inputs": [
        {
          "internalType": "uint256",
          "name": "marketId",
          "type": "uint256"
        }
      ],
      "name": "finalizeResolution",
      "outputs": [],
      "stateMutability": "nonpayable",
      "type": "function"
    },
    {
      "inputs": [
        {
          "internalType": "uint256",
          "name": "",
          "type": "uint256"
        }
      ],
      "name": "markets",
      "outputs": [
        {
          "internalType": "uint256",
          "name": "id",
          "type": "uint256"
        },
        {
          "internalType": "string",
          "name": "description",
          "type": "string"
        },
        {
          "internalType": "bool",
          "name": "resolved",
          "type": "bool"
        },
        {
          "internalType": "uint8",
          "name": "winningOutcome",
          "type": "uint8"
        },
        {
          "internalType": "uint256",
          "name": "totalPool0",
          "type": "uint256"
        },
        {
          "internalType": "uint256",
          "name": "totalPool1",
          "type": "uint256"
        },
        {
          "internalType": "uint256",
          "name": "creationTimestamp",
          "type": "uint256"
        },
        {
          "internalType": "bool",
          "name": "resolutionProposed",
          "type": "bool"
        },
        {
          "internalType": "uint8",
          "name": "proposedOutcome",
          "type": "uint8"
        },
        {
          "internalType": "uint256",
          "name": "challengeWindowEndTime",
          "type": "uint256"
        }
      ],
      "stateMutability": "view",
      "type": "function"
    },
    {
      "inputs": [],
      "name": "nextMarketId",
      "outputs": [
        {
          "internalType": "uint256",
          "name": "",
          "type": "uint256"
        }
      ],
      "stateMutability": "view",
      "type": "function"
    },
    {
      "inputs": [],
      "name": "owner",
      "outputs": [
        {
          "internalType": "address",
          "name": "",
          "type": "address"
        }
      ],
      "stateMutability": "view",
      "type": "function"
    },
    {
      "inputs": [
        {
          "internalType": "uint256",
          "name": "marketId",
          "type": "uint256"
        },
        {
          "internalType": "uint8",
          "name": "outcome",
          "type": "uint8"
        }
      ],
      "name": "placeBet",
      "outputs": [],
      "stateMutability": "payable",
      "type": "function"
    },
    {
      "inputs": [
        {
          "internalType": "uint256",
          "name": "marketId",
          "type": "uint256"
        },
        {
          "internalType": "uint8",
          "name": "proposedOutcome",
          "type": "uint8"
        }
      ],
      "name": "proposeResolution",
      "outputs": [],
      "stateMutability": "nonpayable",
      "type": "function"
    },
    {
      "inputs": [],
      "name": "renounceOwnership",
      "outputs": [],
      "stateMutability": "nonpayable",
      "type": "function"
    },
    {
      "inputs": [
        {
          "internalType": "address",
          "name": "newOwner",
          "type": "address"
        }
      ],
      "name": "transferOwnership",
      "outputs": [],
      "stateMutability": "nonpayable",
      "type": "function"
    }
  ],
  "bytecode": "0x6080604052348015600e575f5ffd5b503380603357604051631e4fbdf760e01b81525f600482015260240160405180910390fd5b603a81603f565b50608e565b5f80546001600160a01b038381166001600160a01b0319831681178455604051919092169283917f8be0079c531659141344cd1fd0a4f28419497f9722a3daafe3b4186f6b6457e09190a35050565b61116d8061009b5f395ff3fe6080604052600436106100d9575f3560e01c80638da5cb5b1161007c578063b1283e7711610057578063b1283e7714610250578063c3a079ed14610285578063f2fde38b1461029b578063f5489b7e146102ba575f5ffd5b80638da5cb5b146101cf5780638f99230e146101f557806390ab07a514610231575f5ffd5b806354888f55116100b757806354888f55146101635780636475e3d314610182578063715018a61461019c5780638a69614e146101b0575f5ffd5b806303edf914146100dd578063120aa877146100f2578063406ef2ef14610140575b5f5ffd5b6100f06100eb366004610d05565b6102d9565b005b3480156100fd575f5ffd5b5061012b61010c366004610d45565b600460209081525f928352604080842090915290825290205460ff1681565b60405190151581526020015b60405180910390f35b34801561014b575f5ffd5b5061015560015481565b604051908152602001610137565b34801561016e575f5ffd5b5061015561017d366004610d66565b6104ac565b34801561018d575f5ffd5b5061015566038d7ea4c6800081565b3480156101a7575f5ffd5b506100f0610636565b3480156101bb575f5ffd5b506100f06101ca366004610dd4565b610649565b3480156101da575f5ffd5b505f546040516001600160a01b039091168152602001610137565b348015610200575f5ffd5b5061015561020f366004610deb565b600360209081525f938452604080852082529284528284209052825290205481565b34801561023c575f5ffd5b506100f061024b366004610d05565b6108d5565b34801561025b575f5ffd5b5061026f61026a366004610dd4565b6109f6565b6040516101379a99989796959493929190610e24565b348015610290575f5ffd5b506101556201518081565b3480156102a6575f5ffd5b506100f06102b5366004610eb2565b610ad5565b3480156102c5575f5ffd5b506100f06102d4366004610dd4565b610b12565b60015482106103035760405162461bcd60e51b81526004016102fa90610ed2565b60405180910390fd5b5f8281526002602081905260409091209081015460ff16156103375760405162461bcd60e51b81526004016102fa90610f01565b60ff8216158061034a57508160ff166001145b6103885760405162461bcd60e51b815260206004820152600f60248201526e496e76616c6964206f7574636f6d6560881b60448201526064016102fa565b66038d7ea4c680003410156103ef5760405162461bcd60e51b815260206004820152602760248201527f42657420616d6f756e74206d757374206265206174206c6561737420746865206044820152666d696e696d756d60c81b60648201526084016102fa565b5f838152600360209081526040808320338452825280832060ff8616845290915281208054349290610422908490610f4c565b909155505060ff82165f0361044f5734816003015f8282546104449190610f4c565b909155506104689050565b34816004015f8282546104629190610f4c565b90915550505b6040805160ff84168152346020820152339185917f4f1eed5e863a822b0f9eb960dfdab2cc5a99beec4b191f2a7a9c7e28e5a15524910160405180910390a3505050565b5f6104b5610c75565b600180549081905f6104c683610f5f565b919050555060405180610140016040528082815260200185858080601f0160208091040260200160405190810160405280939291908181526020018383808284375f9201829052509385525050506020808301829052604080840183905260608401839052608084018390524260a085015260c0840183905260e084018390526101009093018290528482526002815291902082518155908201516001820190610570908261100f565b50604082810151600283018054606086015160ff90811661010090810261ff0019951515861661ffff1994851617179093556080870151600387015560a0870151600487015560c0870151600587015560e0870151600687018054858a0151909316909402901515909416911617919091179055610120909201516007909101555181907f2d1e9ad45dbe8e898e0374deebf2a661b2ae7c1855d2a29507d584c35d287c7590610625908790879042906110ca565b60405180910390a290505b92915050565b61063e610c75565b6106475f610ca1565b565b600154811061066a5760405162461bcd60e51b81526004016102fa90610ed2565b5f8181526002602081905260409091209081015460ff166106c35760405162461bcd60e51b815260206004820152601360248201527213585c9ad95d081b9bdd081c995cdbdb1d9959606a1b60448201526064016102fa565b5f82815260046020908152604080832033845290915290205460ff16156107255760405162461bcd60e51b815260206004820152601660248201527514185e5bdd5d08185b1c9958591e4818db185a5b595960521b60448201526064016102fa565b60028101545f838152600360209081526040808320338452825280832061010090940460ff1680845293909152902054806107955760405162461bcd60e51b815260206004820152601060248201526f4e6f7468696e6720746f20636c61696d60801b60448201526064016102fa565b5f836004015484600301546107aa9190610f4c565b90505f60ff8416156107c05784600401546107c6565b84600301545b90505f8183036107d75750826107ef565b816107e28486611101565b6107ec9190611118565b90505b5f878152600460209081526040808320338085529252808320805460ff191660011790555183908381818185875af1925050503d805f811461084c576040519150601f19603f3d011682016040523d82523d5f602084013e610851565b606091505b50509050806108945760405162461bcd60e51b815260206004820152600f60248201526e151c985b9cd9995c8819985a5b1959608a1b60448201526064016102fa565b604051828152339089907fe97cee5a4c0549d3fdc81e322b718ddf0aeb3418ec87dce4f9a7fb28d117c3129060200160405180910390a35050505050505050565b6108dd610c75565b60015482106108fe5760405162461bcd60e51b81526004016102fa90610ed2565b5f8281526002602081905260409091209081015460ff16156109325760405162461bcd60e51b81526004016102fa90610f01565b60ff8216158061094557508160ff166001145b6109835760405162461bcd60e51b815260206004820152600f60248201526e496e76616c6964206f7574636f6d6560881b60448201526064016102fa565b60068101805460ff84166101000261ffff199091161760011790556109ab6201518042610f4c565b600782018190556040805160ff85168152602081019290925284917fd35200314fe3bde6fce230c3fc94927045496643e052388c0cece3498e5b353b910160405180910390a2505050565b60026020525f908152604090208054600182018054919291610a1790610f8b565b80601f0160208091040260200160405190810160405280929190818152602001828054610a4390610f8b565b8015610a8e5780601f10610a6557610100808354040283529160200191610a8e565b820191905f5260205f20905b815481529060010190602001808311610a7157829003601f168201915b5050505060028301546003840154600485015460058601546006870154600790970154959660ff80861697610100968790048216975094959394929381831693920416908a565b610add610c75565b6001600160a01b038116610b0657604051631e4fbdf760e01b81525f60048201526024016102fa565b610b0f81610ca1565b50565b6001548110610b335760405162461bcd60e51b81526004016102fa90610ed2565b5f8181526002602081905260409091209081015460ff1615610b675760405162461bcd60e51b81526004016102fa90610f01565b600681015460ff16610bbb5760405162461bcd60e51b815260206004820152601760248201527f5265736f6c7574696f6e206e6f742070726f706f73656400000000000000000060448201526064016102fa565b8060070154421015610c0f5760405162461bcd60e51b815260206004820152601960248201527f4368616c6c656e676520706572696f64206e6f74206f7665720000000000000060448201526064016102fa565b60028101805460068301546101009081900460ff908116820261ffff199093169290921760011792839055604051920416815282907f739f283563fb51ab6b89ee95d937b2e63a6cfcb83c385dbebb629f9d97bd43e69060200160405180910390a25050565b5f546001600160a01b031633146106475760405163118cdaa760e01b81523360048201526024016102fa565b5f80546001600160a01b038381166001600160a01b0319831681178455604051919092169283917f8be0079c531659141344cd1fd0a4f28419497f9722a3daafe3b4186f6b6457e09190a35050565b803560ff81168114610d00575f5ffd5b919050565b5f5f60408385031215610d16575f5ffd5b82359150610d2660208401610cf0565b90509250929050565b80356001600160a01b0381168114610d00575f5ffd5b5f5f60408385031215610d56575f5ffd5b82359150610d2660208401610d2f565b5f5f60208385031215610d77575f5ffd5b823567ffffffffffffffff811115610d8d575f5ffd5b8301601f81018513610d9d575f5ffd5b803567ffffffffffffffff811115610db3575f5ffd5b856020828401011115610dc4575f5ffd5b6020919091019590945092505050565b5f60208284031215610de4575f5ffd5b5035919050565b5f5f5f60608486031215610dfd575f5ffd5b83359250610e0d60208501610d2f565b9150610e1b60408501610cf0565b90509250925092565b8a815261014060208201525f8a51806101408401528060208d0161016085015e5f6101608285010152610160601f19601f830116840101915050610e6c604083018b15159052565b60ff891660608301528760808301528660a08301528560c0830152610e9560e083018615159052565b60ff93909316610100820152610120015298975050505050505050565b5f60208284031215610ec2575f5ffd5b610ecb82610d2f565b9392505050565b60208082526015908201527413585c9ad95d08191bd95cc81b9bdd08195e1a5cdd605a1b604082015260600190565b60208082526017908201527f4d61726b657420616c7265616479207265736f6c766564000000000000000000604082015260600190565b634e487b7160e01b5f52601160045260245ffd5b8082018082111561063057610630610f38565b5f60018201610f7057610f70610f38565b5060010190565b634e487b7160e01b5f52604160045260245ffd5b600181811c90821680610f9f57607f821691505b602082108103610fbd57634e487b7160e01b5f52602260045260245ffd5b50919050565b601f82111561100a57805f5260205f20601f840160051c81016020851015610fe85750805b601f840160051c820191505b81811015611007575f8155600101610ff4565b50505b505050565b815167ffffffffffffffff81111561102957611029610f77565b61103d816110378454610f8b565b84610fc3565b6020601f82116001811461106f575f83156110585750848201515b5f19600385901b1c1916600184901b178455611007565b5f84815260208120601f198516915b8281101561109e578785015182556020948501946001909201910161107e565b50848210156110bb57868401515f19600387901b60f8161c191681555b50505050600190811b01905550565b60408152826040820152828460608301375f606084830101525f6060601f19601f8601168301019050826020830152949350505050565b808202811582820484141761063057610630610f38565b5f8261113257634e487b7160e01b5f52601260045260245ffd5b50049056fea26469706673582212205ab8eb77e8a5c6b2db1143d68ac68dd4fa7fad3b5b8d941f7e395c66b088119464736f6c634300081c0033",
  "linkReferences": {},
  "deployedLinkReferences": {},
  "immutableReferences": {},
  "inputSourceName": "project/contracts/VantageMarket.sol",
  "buildInfoId": "solc-0_8_28-03ca3b8e1e5c7666a6fc7ffcec089438f5d38607"
}